:020000040800F2
:10000000E0060020F1010008C11A00089D16000852
:10001000BD1A0008A1040008D51A0008000000005D
:10002000000000000000000000000000C91A0008E5
:10003000A504000800000000C51A0008CD1A000839
:100040000B0200080B0200080B0200080B0200085C
:100050000B0200080B0200080B0200080B0200084C
:100060000B0200080B0200080B0200080B0200083C
:100070000B0200080B0200080B0200080B0200082C
:100080000B0200080B0200080B0200080000000031
:100090000000000000000000000000000B0200084B
:1000A0000B0200080B0200080B0200080B020008FC
:1000B0000B0200080B0200080B0200080B020008EC
:1000C0000B0200080B0200080B0200080B020008DC
:1000D0000B0200080B0200080B0200080B020008CC
:1000E0000B0200080B0200080B02000800000000D1
:1000F0000000000000000000000000000000000000
:1001000000000000000000000000000000000000EF
:1001100000000000000000000B0200080B020008B5
:1001200000F002F800F055F814A696E8000CB2446E
:10013000B344DA4501D100F04CF8BAE80F000FA63D
:1001400096E83000A5EB040504EB0607AAEB0704CC
:10015000A7F101074FEA15154FEA3414A4F1010481
:10016000AC4201D300F035F813F0010F18BFFB1AB1
:1001700043F0010300F001F8DBE71847481D0000D9
:10018000681D0000103A24BF78C878C1FAD8520719
:1001900024BF30C830C144BF04680C607047000001
:1001A000704700000023002400250026103A28BFD5
:1001B00078C1FBD8520728BF30C148BF0B607047D9
:1001C000642900F07D80002070471FB51FBD10B569
:1001D00010BD00F02AF91146FFF7F7FF01F00AFD04
:1001E00000F048F903B4FFF7F2FF03BC00F050F948
:1001F0000948804709480047FEE7FEE7FEE7FEE7BB
:10020000FEE7FEE7FEE7FEE7FEE7FEE704480549F6
:10021000054A064B70470000D11A0008210100086A
:10022000E0000020E0060020E0020020E0020020C4
:100230000FB41CB5074B06AA7B446946009005988D
:1002400000F0DBF80020694600F0EAF81CBC5DF81D
:1002500014FB0000E50100002DE9F0410E460446C4
:10026000002020622046E168884730B3252805D069
:10027000D4E901219047206A401CF2E7E16820465A
:1002800000278847050018D0A5F14100192802D899
:1002900020354FF400673246294620462760FFF795
:1002A0008FFF40B1012804D0F61D26F0070608365E
:1002B000D8E7361DD6E72846DAE7206ABDE8F081A0
:1002C0002DE9F0410646002410687529314616A52F
:1002D00010D0AFF30080002802DA404213A507E0F7
:1002E00031688A0701D512A502E0490704D511A596
:1002F000012401E0AFF3008000210A2206F1240767
:1003000009E0B0FBF2FCB0FBF2F302FB1C00303062
:1003100078541846491C0028F3D123462A46304613
:10032000BDE8F04100F00BB8000000002D00000017
:100330002B000000200000007047704770472DE937
:10034000F0470D4699469246044600F1240801689C
:10035000880604D5E06921F01001216000E0012049
:10036000A84201DD471B00E00027A1697A1902EBD2
:100370000900081AA0612078C00602D42046AFF315
:100380000080002608E0D4E901211AF80600904711
:10039000206A401C761C20624E45F4DB2078C006A3
:1003A0000AD52046AFF3008006E0D4E901213020D1
:1003B0009047206A401C2062381EA7F10107F4DC38
:1003C00007E0D4E9012118F805009047206A401C95
:1003D0002062281EA5F10105F3DC2046AFF3008062
:1003E0002078000602D50220BDE8F0870120FBE757
:1003F00001694A1C02610878704700B58FB0CDE9E9
:1004000001310021059105497944CDE903101146D8
:100410006846FFF721FF0FB000BD0000E5FFFFFFBA
:100420000A6802F8010B0A607047754600F02CF864
:10043000AE4605006946534620F00700854618B0D1
:1004400020B5FFF7E3FEBDE820404FF000064FF077
:1004500000074FF000084FF0000BAC46ACE8C009B5
:10046000ACE8C009ACE8C009ACE8C00921F007015C
:100470008D46704710B50446AFF300802046BDE8B6
:100480001040FFF7AFBE000000487047200000207A
:1004900001491820ABBEFEE72600020070470000AD
:1004A000FEE7000070470000B0B5044600F024F9F4
:1004B000054640F21000C2F200000078611C18BF2F
:1004C000044400BF00F018F9401BA042FAD3B0BDAD
:1004D0002DE9F04F82B00E68002E00F0FD8041F251
:1004E0000042C4F20102042340F2004E904208BFD1
:1004F00003234FF6FF7CC4F2010E00930024012376
:10050000C1F2100C4FF0000A4FF0000944E000BFA8
:10051000012704F00C030F229A402BEA020207FA8B
:1005200003F34FEA9A051A4346F825204E6840F235
:100530000C45F202DEF8082054BF22EA080242EA23
:100540000802C4F20105CEF808202A68B30254BF9D
:1005500022EA080242EA08022A60B303DEF8042015
:1005600054BF22EA080242EA0802F303CEF804204C
:10057000DEF800204FF0010354BF22EA080242EAED
:100580000802CEF800200E680AF1010A36FA0AF2D3
:1005900004F1040400F0A08003FA0AFB16EA0B0839
:1005A000F1D04E68664511DC122E55D8DFE806F012
:1005B000340A444854545454545454545454545481
:1005C000544C5000D1F80C9046E000BF4FF6FF723B
:1005D000C1F2210296420FDC0022C1F211029642C2
:1005E0001AD00022C1F21202964215D00022C1F2A6
:1005F0002102964210D02FE00022C1F22202964240
:100600000AD00022C1F23102964205D00022C1F286
:100610003202964220D100BF8A684AB1012A14BF33
:10062000C0F814B0C0F810B04FF0080914E000BFD3
:100630004FF0040910E000BFCA6802F108090BE09E
:100640004FF0000908E000BFCA6802F1040903E0A6
:10065000CA6802F10C0900BF22460646B8F5807F41
:1006600024BF203A043637680F25954027EA050550
:1006700009FA02F22A433260CA79D2067FF583AFC3
:1006800041F21803C4F202031A68AEF57E7642F016
:1006900001021A601A6802F001020192019A2AF01E
:1006A000030256F802B040F60002C4F20102904282
:1006B00010D040F60042C4F2010290423FF428AF4D
:1006C00041F20002C4F20102009F904208BF0227DB
:1006D0001FE700BF00271CE702B0BDE8F08F000055
:1006E0008068084018BF012070470000002A08BF3A
:1006F000090401617047000040F2DC00C2F2000012
:1007000000687047002804BF01207047F0B581B031
:10071000044690F83D0028B9002084F83C002046AB
:1007200000F090F9242084F83D002068016821F051
:1007300001010160016841F400410160016821F498
:100740000041016000F0F2FA636848F2A16CC0F267
:10075000010C40F60011C0F23D0163453CBF48F278
:100760008041C0F21E01884202D2012001B0F0BDDA
:100770004DF68361C4F21B31A0FB01122168970C76
:10078000D1F804E04FF496762EF03F0545EA924505
:100790004D60774348F638160D6AC0F24106A7FB54
:1007A000067625F03F07634538BF960C721C3A4326
:1007B0000A62CA6948F2A0664CF6FF77C0F20106E9
:1007C000B34222EA07020BD801385B00B0FBF3F01A
:1007D00001306FF31F30042898BF04201BE000BFD6
:1007E000A768013857B119277B43B0FBF3F00130FC
:1007F0006FF31F3070B100F5804007E003EB430357
:10080000B0FBF3F001306FF31F3018B100F500407A
:1008100001E000BF01201043C8610868D4E9072344
:1008200020F0C000104318430860886848F2FF3287
:1008300004F10C0790438CCF18431043A6698860DD
:10084000C86820F0FF0038433043C860086840F0B3
:100850000100086000202021206484F83D102063FE
:1008600084F83E0001B0F0BD2DE9F04383B01E4690
:10087000174689460446FFF73FFF94F83D102029AC
:1008800024D10546206800BF816989071AD5FFF782
:1008900033FF411B20681A29F6D381698907F3D5F4
:1008A00000202021206384F83D1084F83E00216C54
:1008B00041F02001216484F83C00022003B0BDE82F
:1008C000F08300BF94F83C10012903D1022003B04B
:1008D000BDE8F083012184F83C100168C90703D109
:1008E000016841F001010160016840F2020821F451
:1008F00000610160212184F83D10102184F83E1030
:100900000021216467626685618DC0F2010821853E
:10091000A8F10211E162E16A0A9E11F5803F18BF59
:1009200001291DD1016841F48071016020464FF01A
:10093000011100223346009500F010FF50B12068ED
:100940000068C00544BF4FF400702064012003B06C
:10095000BDE8F0832069B0F5804F07D1FE2015E097
:100960000829DFD0216B1229DCD0DFE7062000EA5E
:10097000D9102168F030086108F10601204632469E
:100980002B4600F0D1FF0028E0D1FF20216800EACB
:10099000090008612046414632462B4600F0C4FF5C
:1009A0000028D3D10020029020684169029180691B
:1009B0000290029806E000BF204631462A4600F029
:1009C0006FFE18BB208D68B3204631462A4601F0E1
:1009D00017F8D8B9606A2168024612F8013B0B612A
:1009E0006262628D013A6285228D531E23854F69B2
:1009F0007F07E1D51B04DFD0437802300B616062D2
:100A0000608D01386085901E2085D5E7206C042814
:100A10009CD12068016841F400710160012003B09D
:100A2000BDE8F0832068016841F400710160202076
:100A300084F83D00002084F83E0084F83C0003B0B8
:100A4000BDE8F08310B586B045F200410068C4F2FD
:100A5000000100228842049202D006B010BD00BFFF
:100A600041F21804C4F20204206840F0080020603B
:100A7000206800F0080001900198C0200290122028
:100A800003900320059001F5384002A9FFF720FDEF
:100A9000606840F400106060606800F4001001902D
:100AA000019806B010BD000040F2100040F2DC01D9
:100AB000C2F20000C2F2000100780A681044086027
:100AC0007047000080B5032000F07AF8002000F0A5
:100AD00005F800F027F8002080BD000070B540F256
:100AE0001006C2F2000640F218013278C2F200018C
:100AF0004FF47A730968B3FBF2F20446B1FBF2F1EA
:100B0000084600F027FB0F2C4FF0010508D838B934
:100B10004FF0FF3021460022002500F025F87460D8
:100B2000284670BD82B041F21800C4F2020001688C
:100B3000022241F001010160016801F0010101910F
:100B40000199416841F080514160406800F0805057
:100B5000009000980420C4F20100016862F31A6159
:100B6000016002B07047000010B54EF60C5CCEF28A
:100B7000000CDCF80030C3F3022E8EF00704042CC6
:100B800028BF0424BEF103034FF0FF3E0EFA04F425
:100B900038BF0023A14399400EFA03F39A4311434F
:100BA00000F00F0200F160430901043A03F56443C9
:100BB0006244002848BF02F10C03197010BD000008
:100BC0004EF60C51CEF200010A684FF6FF031A40B0
:100BD00060F30A2242F0806040F0FD7008607047C8
:100BE000002804BF01207047F0B581B004460068BA
:100BF00041F204068107C4F2020611D5410703D56C
:100C0000316841F4E0613160010703D5316841F496
:100C1000605131603168A26821F0F0011143316008
:100C2000C10736D06068022808D001280ED156F8D6
:100C3000041C890312D4012001B0F0BD56F8041C35
:100C400089010BD4012001B0F0BD00BF56F8041C8F
:100C5000890703D4012001B0F0BD00BF316821F045
:100C6000030108433060FFF747FD054641F288372E
:100C70003068616800F00C00B0EB810F08D0FFF71E
:100C80003BFD401BB842F3D9032001B0F0BD00BFCB
:100C90002068410705D53168E26821F4E06111431D
:100CA0003160000706D53068216920F4605040EAC1
:100CB000C1003060326802F00C00082841F20020C8
:100CC000C0F27A0019D141F6A463C2F38341C0F6A1
:100CD0000003595CD20305D440F60010C0F23D0079
:100CE00048430AE0B26A41F6B46302F00F02C0F66C
:100CF00000039A5C4843B0FBF2F0316841F68C6225
:100D0000C1F30311C0F60002515C40F2180220FA50
:100D100001F140F21400C2F200000068C2F20002C9
:100D20001160FFF7DBFE002001B0F0BD40F21800BB
:100D300041F20401C2F20000C4F202010068096835
:100D400041F69C62C1F30221C0F60002515CC8402A
:100D500070470000002804BF012070472DE9F041D2
:100D600082B00446007841F20006C007C4F20206D1
:100D70000CD0706800F00C00042840F081803068CE
:100D8000800303D56068002800F04E81207880073A
:100D90001BD5706810F00C0F09D0706800F00C00C3
:100DA000082840F08B807068C00300F187803068AD
:100DB000800703D52069012840F0368130686169D9
:100DC00020F0F80040EAC10030602078000713D41A
:100DD000207840072CD4E569002D00F02081706850
:100DE00000F00C00082840F0AF80012D40F00C818D
:100DF000012002B0BDE8F081A069002800F08C80DD
:100E00000020C4F242200121C0F88014FFF774FCD6
:100E1000054600BF706A800700F1BA80FFF76CFCDE
:100E2000401B0228F6D9032002B0BDE8F08100BFC4
:100E3000F0695FEAC00808D4F06940F08050F061C2
:100E4000F06900F080500090009847F20007C4F26B
:100E500000073868C0054DD4386840F480703860A9
:100E6000FFF74AFC054600BF3868C00542D4FFF7CB
:100E700043FC401B6428F7D9032002B0BDE8F08191
:100E8000706800F00C00082803D17068C0033FF5BB
:100E900076AF6068002800F00981B0F5A02F00F05F
:100EA0001D81B0F5803F00F01D81306820F4803056
:100EB0003060306820F4802017E100BF20690028EE
:100EC00040F20000C4F2422000F08C800121016059
:100ED000FFF712FC054600BF306880073FF56EAF94
:100EE000FFF70AFC401B0228F6D9032002B0BDE838
:100EF000F08100BFE068002800F09A80052800F02B
:100F0000B180012800F0B280306A20F00100306228
:100F1000306A20F00400ACE00020C4F2422000213E
:100F2000C0F88014FFF7E8FB054600BF706A800731
:100F30007FF54EAFFFF7E0FB401B0228F6D90320F8
:100F400002B0BDE8F08100BF0027C4F242270020B4
:100F50003866FFF7D1FB022D05460DD130688001C0
:100F600040F1D680FFF7C8FB401B02284FF003007A
:100F7000F4D902B0BDE8F081306880014FD5FFF7A9
:100F8000BBFB401B02284FF00300F5D9F1E700BF7F
:100F900040F21800C2F20000006844F6D351C1F2DA
:100FA0006201A0FB0101480A019000BF00BF019847
:100FB000411E002801913FF40BAF00BF0198411E74
:100FC000002801913FF404AF00BF0198411E0028A2
:100FD00001913FF4FDAE00BF0198411E0028019130
:100FE000E4D1F5E600210160FFF786FB054600BF6E
:100FF000306880077FF5E9AEFFF77EFB401B0228D3
:101000004FF00300F4D9B4E77068216A00F480322D
:101010008A4209D1616A00F47010884204D100202C
:1010200002B0BDE8F08100BF012002B0BDE8F08150
:10103000306A20F001003062306A20F00400306233
:10104000FFF75AFB054641F2883700BF306A800738
:1010500022D5FFF751FB401BB8424FF00300F5D9F2
:1010600087E700BF306A40F004003062306A40F029
:1010700001003062FFF740FB054641F2883700BFB0
:10108000306A800708D4FFF737FB401BB842F7D916
:10109000032002B0BDE8F081B8F1000F3FF59BAE30
:1010A000F06920F08050F06195E600BF306820F4D0
:1010B00080303060306820F480203060FFF71CFB07
:1010C000054600BF306880037FF560AEFFF714FB74
:1010D000401B64284FF00300F4D94AE7306840F41D
:1010E00080203060306840F480303060FFF704FBCF
:1010F000054600BF306880033FF548AEFFF7FCFAB5
:10110000401B6428F6D9032002B0BDE8F08100BF7F
:10111000206AB0F5803F05D1F16AA26821F00F0185
:101120001143F1627168626A21F47411114308433A
:10113000706001203866FFF7DFFA044630688001EE
:101140003FF56DAFFFF7D8FA001B02284FF0030000
:10115000F4D90EE7411E0020B0EB116F1CBF012037
:1011600070474EF21002CEF2000251604EF623514B
:10117000CEF20001F0230B700721906011607047E0
:1011800080B582B040F28000C2F2000008214170B8
:1011900040F288008DF807104FF00A0CC2F20000F0
:1011A0000DF107024E210123CDF800C0FFF75CFBD3
:1011B00002B080BD10B582B041F204040020CEF22E
:1011C000000400F089FC102000F086FC40F21800BA
:1011D000C2F2000000684DF68361C4F21B31A0FB2F
:1011E0000101890C4FF4FA62206851432268121AF7
:1011F0000192019A8A4211D22268121A0192019A2E
:101200008A420BD22268121A0192019A8A4205D2AE
:101210002268121A0192019A8A42E7D302B010BDE5
:10122000B0B50C46302101EAC0014031C501084685
:1012300000F052FCE8B200F04FFC2078050140F0CD
:10124000010000F0F10000F047FC681CC0B200F0A3
:1012500043FC6078050140F0010000F0F10000F06F
:101260003BFC681CC0B200F037FCA078050140F0E0
:10127000010000F0F10000F02FFC681CC0B200F08B
:101280002BFCE078050140F0010000F0F10000F0D7
:1012900023FC681CC0B200F01FFC2079050140F05F
:1012A000010000F0F10000F017FC681CC0B200F073
:1012B00013FC6079050140F0010000F0F10000F03E
:1012C0000BFC681CC0B200F007FCA079050140F0DF
:1012D000010000F0F10000F0FFFB681CC0B200F05C
:1012E000FBFBE079040140F0010000F0F10000F0A8
:1012F000F3FB601CC0B2BDE8B04000F0EDBB0000E5
:101300002DE9F04182B040F28004C2F200040821CD
:1013100020706170042101284EF6FC5088BF08211E
:10132000A170CEF20000016841F2040521F0807145
:1013300001600168CEF2000541F08071016055F84E
:10134000040C20F0010045F8040C55F8040C40F0A2
:10135000010045F8040C00202860322000BF00BFC7
:1013600000BFFFF7A1F860780A278DF8040040F26B
:101370008800C2F2000001AA4E2101230097FFF766
:1013800073FA4FF47A70FFF78FF8302000F0A4FB67
:1013900040F21808C2F20008D8F800004DF6836742
:1013A000C4F21B37A0FB0701890C41F29412286894
:1013B000514300BF2A68121A0192019A8A4211D23F
:1013C0002A68121A0192019A8A420BD22A68121ACA
:1013D0000192019A8A4205D22A68121A0192019A50
:1013E0008A42E7D3302000F077FBD8F8000041F2C2
:1013F0009412A0FB0701890C286851432A68121A2D
:101400000192019A8A4211D22A68121A0192019A13
:101410008A420BD22A68121A0192019A8A4205D294
:101420002A68121A0192019A8A42E7D3302000F00A
:1014300053FBD8F8000041F29412A0FB0701890C7D
:10144000286851432A68121A0192019A8A4211D2DD
:101450002A68121A0192019A8A420BD22A68121A39
:101460000192019A8A4205D22A68121A0192019ABF
:101470008A42E7D3202000F02FFBD8F80000642236
:10148000A0FB0701890C2868514300BF2A68121A83
:101490000192019A8A4211D22A68121A0192019A83
:1014A0008A420BD22A68121A0192019A8A4205D204
:1014B0002A68121A0192019A8A42E7D3A07840F072
:1014C0002001060101F0F00000F006FBF0B200F090
:1014D00003FB0420E070002000F0FEFAC02000F0C2
:1014E000FBFA002000F0F8FA102000F0F5FAD8F826
:1014F00000004FF4FA62A0FB0701890C28685143F1
:101500002A68121A0192019A8A4211D22A68121A82
:101510000192019A8A420BD22A68121A0192019A08
:101520008A4205D22A68121A0192019A8A42E7D3A6
:1015300002202071002000F0CFFA602000F0CCFAE9
:10154000D8F8000041F29412A0FB0701890C28682A
:10155000514300BF2A68121A0192019A8A4211D29D
:101560002A68121A0192019A8A420BD22A68121A28
:101570000192019A8A4205D22A68121A0192019AAE
:101580008A42E7D340F20004C2F200040020214660
:10159000FFF746FE04F108010120FFF741FE00209D
:1015A00000F09AFA202000F097FAD8F800004FF4E3
:1015B000FA62A0FB0701890C286851432A68121AB5
:1015C0000192019A8A4211D22A68121A0192019A52
:1015D0008A420BD22A68121A0192019A8A4205D2D3
:1015E0002A68121A0192019A8A42E7D302B0BDE832
:1015F000F081000080B582B040F28000C2F20000AD
:101600000021417040F288008DF807104FF00A0C5D
:10161000C2F200000DF107024E210123CDF800C0F7
:10162000FFF722F902B080BD0178002908BF70479A
:10163000B0B5441E41F0010000F0F1000D0100F0D2
:101640004BFA681CC0B200F047FAA17801340029B7
:10165000F0D1BDE8B040704710B540F28002C2F250
:10166000000212788A4298BF511EC9B207A212F82E
:101670002110084440F08001040101F0F00000F066
:101680002BFAE0B2BDE8104000F026BA00000000DE
:10169000400000001400000054000000FEE70000BD
:1016A00070B50368044653F8140F400711D40E4672
:1016B000481C29D086BB00BF1868400527D4FFF717
:1016C0001BF8236853F8140F400737D518684007F4
:1016D000F2D5002070BD00BF18684007F9D4186823
:1016E000400514D418684007F3D4186840050ED498
:1016F00018684007EDD41868400508D418684007FA
:101700004FF0000048BF70BD18684005E4D56FF485
:1017100080601860042012E0154603E053F8140FAF
:101720004007D6D418684005F1D4FEF7E5FF401B0A
:101730002368B042F2D958694007EFD42020002135
:101740002022216384F83D2084F83E10226C10434F
:101750002064012084F83C1070BD00002DE9F041A8
:10176000054600681E46144601F47F0201338FB21D
:1017700042D0DDF81880B2F5803F40F087804069A4
:101780003840C01BB0FA80F04009A04240F0C88049
:101790004EB924E040693840C01BB0FA80F04009DF
:1017A000A04240F0BD80FEF7A7FFA0EB080128682B
:1017B000B142EFD941693940C91BB1FA81F14909F8
:1017C000A142E7D19BE000BF40693840C01BB0FA9E
:1017D00080F04009A0424FF0000040F0A280FEF7E8
:1017E0008BFF286841693940C91BB1FA81F1490969
:1017F000A142E9D183E000BFB2F5803F24D100BF10
:1018000041693940C91BB1FA81F14909A14240F04F
:10181000878041693940C91BB1FA81F14909A14268
:1018200040F07E8041693940C91BB1FA81F1490914
:10183000A14275D141693940C91BB1FA81F1490909
:10184000A142DDD06CE000BF81693940C91BB1FA0B
:1018500081F14909A14263D181693940C91BB1FABB
:1018600081F14909A1425BD181693940C91BB1FAB3
:1018700081F14909A14253D181693940C91BB1FAAB
:1018800081F14909A142DFD04AE000BF80693840B8
:10189000C01BB0FA80F04009A04241D146B923E014
:1018A00080693840C01BB0FA80F04009A04237D1AF
:1018B000FEF722FFA0EB08012868B142F0D9816948
:1018C0003940C91BB1FA81F14909A142E8D116E0BA
:1018D00080693840C01BB0FA80F04009A0424FF048
:1018E000000018BFBDE8F081FEF706FF2868816997
:1018F0003940C91BB1FA81F14909A142E8D1002060
:101900002021286385F83D1085F83E00296C41F0C0
:101910002001296485F83C000120BDE8F08100BF6A
:101920000020BDE8F0810000F0B581B004460068F9
:101930001D4643698FB203EA0701B94202D1002074
:1019400001B0F0BD4169164601323FD049053FD490
:10195000CEB100BFFEF7D0FE411B2068B14203D9D3
:1019600041693940B94215D141693940B942E6D09F
:1019700041694905EED52BE041693940B942DED0D5
:101980004169490524D4FEF7B7FE20684169394012
:10199000B942F1D0202023E041693940B942CED08C
:1019A0004169490514D441693940B942C7D04169F8
:1019B00049050DD441693940B942C0D04169490552
:1019C00006D441693940B942B9D041694905E3D5E6
:1019D000016841F4007101606FF48061416104208D
:1019E00000212022216384F83D2084F83E10226CDF
:1019F0001043206484F83C10012001B0F0BD0000C9
:101A000070B50368044653F8140F000611D40E464F
:101A1000481C29D086BB00BF1868400527D4FEF7B4
:101A20006BFE236853F8140F000637D518680006BC
:101A3000F2D5002070BD00BF18680006F9D4186800
:101A4000400514D418680006F3D4186840050ED475
:101A500018680006EDD41868400508D41868000618
:101A60004FF0000048BF70BD18684005E4D56FF422
:101A700080601860042012E0154603E053F8140F4C
:101A80000006D6D418684005F1D4FEF735FE401B99
:101A90002368B042F2D958690006EFD42020002113
:101AA0002022216384F83D2084F83E10226C1043EC
:101AB0002064012084F83C1070BD0000FEE70000A7
:101AC000FEE700007047000070470000FEF7ECBF23
:101AD00070470000FEE700002DE9F04385B040F2BA
:101AE0008009C2F20009044699F8010040F2880515
:101AF0002043C2F2000541F204068DF806000A27D1
:101B00000DF1060228464E210123CEF20006009771
:101B1000FEF7AAFE99F801000DF10702204340F0FC
:101B200004008DF8070028464E2101230097FEF798
:101B30009BFE40F21808C2F20008D8F800004DF6EB
:101B40008365C4F21B35A0FB0501880C00EB800106
:101B5000306889003268121A0292029A8A4211D2BF
:101B60003268121A0292029A8A420BD23268121A10
:101B70000292029A8A4205D23268121A0292029A9C
:101B80008A42E7D399F8010004F0FB0108438DF87D
:101B90000F0040F288000A27C2F200000DF10F0288
:101BA0004E2101230097FEF75FFED8F80000A0FB4E
:101BB0000501880C00EB8001306889003268121A38
:101BC0000492049A8A4211D23268121A0492049A38
:101BD0008A420BD23268121A0492049A8A4205D2BF
:101BE0003268121A0492049A8A42E7D305B0BDE81B
:101BF000F083000090B0FEF765FF012000240690FE
:101C00004FF480300225CDE90704CDE90D504FF4A3
:101C100080200F9006A8CDE90B44CDE90944FFF7D9
:101C200099F828B1EFF3108072B600BFFEE700BF4D
:101C30000F20CDE9010501A80021CDE90344059459
:101C4000FEF7CEFF20B1EFF3108072B6FEE700BFC3
:101C50004FF0000A41F21800CDF824A0C4F20200AF
:101C6000016840F6000441F0100101600168C4F20F
:101C7000010401F01001019101990168002241F075
:101C80002001016001684FF06C0801F02001019112
:101C90000199016841F004010160016801F004014B
:101CA00001910199016841F00801016000686C210F
:101CB00000F00800019001982046FEF717FD04F59A
:101CC000006528464FF4407100224FF44079FEF73A
:101CD0000DFD122006AECDE9060A01272046314649
:101CE0000897FEF7F5FBCDE906874FF0020820467E
:101CF00031460897CDF82480FEF7EAFB28463146A6
:101D0000CDE90697CDE90878FEF7E2FB40F28800BE
:101D1000A4F53441C2F2000048F2A0624FF48043BF
:101D2000C0F2010280E80604C0E903A3C0E905AAE5
:101D3000C0E907AAFEF7E6FC20B1EFF3108072B607
:101D4000FEE700BF0220FFF7DBFA4FF0000906AE06
:101D50004FF0000B4FF000084FF0000A03E000BF07
:101D60003220FEF7A1FB20461021FEF7B9FC012826
:101D700008BFBAF1010F4DD05FFA8BF530463BA199
:101D80002A46FEF755FA00200021FFF765FC304691
:101D9000FFF74AFC5FFA88F7304637A13A46FEF76C
:101DA00047FA00200121FFF757FC3046FFF73CFCC3
:101DB00020461021FEF794FC002808BF4FF0010ACE
:101DC000092D08BF092FCBD1FFF7F4F9002000211E
:101DD000FFF742FC2BA0FFF727FC20462021012221
:101DE000FEF784FC204640210122FEF77FFCFFF72E
:101DF000C7F96420FEF758FB204620210022FEF799
:101E000075FC204640210022FEF770FCFFF7F2FB34
:101E1000A6E700BF20462021B9F1000F12D1012210
:101E20004FF00109FEF762FC2046402100224FF0EE
:101E3000000AFEF75BFC5FFA88F0092838BF08F15A
:101E4000010899E700224FF00009FEF74FFC2046F9
:101E500040210122FEF74AFC5FFA8BF04FF0000AA6
:101E6000092838BF0BF1010B86E700BF424C5545EE
:101E7000203D202564000000524544203D2025647B
:101E8000000000004C494D495400000000000000D3
:101E9000000000000102030406070809000000001A
:101EA0000102030402030405060708090A0B0C0DCE
:101EB0000E0F10100102030405060708090A0B0C97
:101EC0000D0E0F10E81E000800000020200000008A
:101ED00084010008081F000820000020C006000040
:101EE000A40100080000000000191B060C1B1300D1
:101EF000181806090809060001000000100000007B
:081F00000024F40000000000C1
:0400000508000121CD
:00000001FF
